:020000020000FC
:100000000C949101189518951895189518951895B0
:100010001895189518951895189518951895189578
:100020001895189518951895189518951895189568
:100030001895189518951895189518951895189558
:100040001895189518951895189518951895189548
:100050001895189518951895189518951895189538
:100060001895189518951895189518951895189528
:100070001895189518951895189518951895189518
:10008000189518951895189518951895140012013B
:10009000000012000001BA030E94A401B8010E5F23
:1000A0001F4FDB011696FB01389680818E7F80837F
:1000B000022E032A51F1042E052A39F10090120173
:1000C00010901301040E151E8AE0080E80E0181E21
:1000D000081688E01806C8F44D935C93DB012D9355
:1000E0003C932091120130911301D8012D933C9340
:1000F000465F5F4FA2E1B1E00D911C91040F151F07
:100100001C930E9300810160008300810170E4E084
:100110000C94AA010E94A401D80180E090E0FD01A6
:10012000008500FF12C002811381080F191F68D0DB
:10013000ED91FC911197E80FF91F00830196FD01E5
:10014000068117810817190770F7E4E00C94AA01DB
:100150000E94A301D801CD010496FD010085037022
:100160000330A9F50D911C911197FC01208131817B
:10017000020F131FF8014080FD0102811381FC0171
:1001800020813181020F131F3BD0041561F0242D13
:10019000FD0102811381FC0140815181040F151F73
:1001A00024D001E015C0FC01008111810F5F1F4FB9
:1001B00000831183FD0106811781FC0120813181BB
:1001C0000217130778F618960C910D7F0C9300E038
:1001D000E5E00C94A901F801389620812260208383
:1001E00020E0F801248325830895E199FECF1FBB09
:1001F0000EBB2DBB0FB7F894E29AE19A0FBF08959A
:10020000E199FECF1FBB0EBBE09A0DB30895BA93E0
:10021000AA93A4E1B1E047E050E09D0100E011E0C5
:100220000E944C004AE050E02BE131E009E011E08F
:100230000E944C0006EF17E00E9400010F3439F4D1
:1002400007EF17E00E9400010B3409F447C006EFE6
:1002500017E00E9400010F3431F407EF17E00E940D
:1002600000010B34D9F10AE00093140108EE13E009
:1002700011960D931C93129703EC15EF28E430E4CC
:1002800013960D931D932D933C9300E011E00E9473
:10029000EB0000E011E00E94A8000130D1F300E083
:1002A00007C010E0E4E1F1E0E00FF11F07830395E0
:1002B0000A30B8F309E011E00E94EB0009E011E018
:1002C0000E94A8000130D1F32FE406EF17E00E944E
:1002D000F5002BE407EF17E00E94F50000E011E0C5
:1002E0000E948A0009E011E00E948A000091250125
:1002F000002359F000E00093250100E011E00E9486
:10030000EB0009E011E00E94EB0000E011E00E9428
:10031000A80009E011E00E94A800E8CF000088953D
:10032000FECF05E60DBF01E00EBFC6E6D3E00E949A
:10033000B301002311F00E94C3010E9407010E9433
:100340008E010C948E014A92BA93AA939A938A933F
:1003500008954C80BB81AA8199818881F0E0EC0FDF
:10036000FD1FEF01089501E0089520E006D0E9F7B0
:100370000895259102D0E9F708952D93015010407A
:10038000202F212B08958CE890E0FC010591149119
:10039000FC013296A591B491FC01349625913491DB
:1003A000422F432B19F0F901E4DF01C0DEDF06968E
:1003B00010E08839910748F308950000000000001C
:0C03C00000000000000000000000000031
:0400000300000000F9
:00000001FF
