:020000020000FC
:100000000C94EA0118951895189518951895189557
:100010001895189518951895189518951895189578
:100020001895189518951895189518951895189568
:100030001895189518951895189518951895189558
:100040001895189518951895189518951895189548
:100050001895189518951895189518951895189538
:100060001895189518951895189518951895189528
:100070001895189518951895189518951895189518
:100080001895189518951895189518953100000130
:100090000000F801008101700895F8012183328386
:1000A000458356836783708700810160008301E088
:1000B00008950E94FC01D80109019D012B5F3F4F6B
:1000C0000D5F1F4F1D01E9E02E0EE0E03E1EFB011B
:1000D000808180FD02C000E038C0FD016183728331
:1000E000E02DE12931F1E42FE52B19F1FB018381AA
:1000F0009481840F951F0A9641805280841595053E
:10010000C0F4F10140835183F90100821182FB01A7
:1001100023813481F80120833183465F5F4FFB01E7
:1001200003811481040F151F038314830C91016054
:100130000C938D01AEDF1C911D7F202F20FB00E072
:1001400001F9102B1C930C910170E6E00C94030252
:100150000E94FC012197D801FD01858196814424EC
:1001600055240C9101FF1BC09E0103811481040DD5
:10017000151D41815281FA0147815085FA01099587
:100180000881FC01E40DF51D008301E0400E00E054
:10019000501EFD01018512854016510628F3219657
:1001A000E6E00C9403020E94FE012197D801CD01E4
:1001B000079600E008830C910670063009F041C0F4
:1001C0009E01FD0103811481FC0140815181040FD6
:1001D000151FFD0141815281FA0147815085FA01C5
:1001E0000995FD0105811681FC0120813181020FF5
:1001F000131FF80120810881021789F0FD01038196
:100200001481FC0140815181040F151FFD01A18162
:10021000B2811596ED91FC91099501E013C0FC01A6
:10022000008111810F5F1F4F0083118300811181B5
:10023000FD01218532850217130710F20C910B7F07
:100240000C9300E02196E4E00C940502F801208173
:1002500021FF06C020812460208320E0278320879F
:100260000895A89501C00000E199FDCF1FBB0EBB0A
:100270002DBB0FB7F894E29AE19A0FBF01E0089501
:10028000A89501C00000E199FDCF1FBB0EBBE09A0D
:100290000DB3F901008301E00895BA93AA93229760
:1002A000A0E0B1E060E471E041E351E020E038E03B
:1002B00002E111E00E944D0062E171E047E050E090
:1002C0009D010BE111E00E94590062E171E04AE0FA
:1002D00050E027E031E006E211E00E9459009E0163
:1002E00006EF17E0CDDF9E012F5F3F4F07EF17E0CE
:1002F000C7DF08810F3421F409810B3409F447C0AA
:100300009E0106EF17E0BCDF9E012F5F3F4F07EF16
:1003100017E0B6DF08810F3419F409810B34B9F105
:100320000AE00093000108EE13E0FD01018312834F
:1003300003EC15EF28E430E403831483258336832C
:100340000BE111E00E9426010BE111E00E94D300B5
:100350000130D1F300E007C010E0E0E0F1E0E00F91
:10036000F11F078303950A30B8F306E211E00E94FB
:10037000260106E211E00E94D3000130D1F32FE400
:1003800006EF17E06EDF2BE407EF17E06ADF0BE103
:1003900011E00E94A80006E211E00E94A80000916E
:1003A0001101002359F000E0009311010BE111E06D
:1003B0000E94260106E211E00E9426010BE111E0F5
:1003C0000E94D30006E211E00E94D300E8CF0000B3
:1003D0008895FECF00E70DBF01E00EBFC1E7D3E077
:1003E0000E940E02002311F00E941E020E944D0185
:1003F0000E94E7010C94E7015A924A92BA93AA9399
:100400009A938A9308955D804C80BB81AA819981DB
:100410008881F0E0EC0FFD1FEF01089501E00895E1
:1004200020E006D0E9F70895259102D0E9F7089574
:100430002D9301501040202F212B08958CE890E03F
:10044000FC0105911491FC013296A591B491FC0137
:10045000349625913491422F432B19F0F901E4DFB2
:1004600001C0DEDF069610E08239910748F3089557
:0400000300000000F9
:00000001FF
