:020000020000FC
:100000000C9401021895189518951895189518953F
:100010001895189518951895189518951895189578
:100020001895189518951895189518951895189568
:100030001895189518951895189518951895189558
:100040001895189518951895189518951895189548
:100050001895189518951895189518951895189538
:100060001895189518951895189518951895189528
:100070001895189518951895189518951895189518
:100080001895189518951895189518953F00000122
:100090000000F8010081017008950E941502D80146
:1000A000FD012183328345835683678370870C91DA
:1000B00001600C9380E091E043E050E020E030E00C
:1000C0008C010E942702BD0143E050E09C0103E047
:1000D00011E038D003E011E084D0009100010A342F
:1000E00041F400910101083421F400910201073428
:1000F00021F103E011E075D0009100010A3441F4D0
:1001000000910101083421F4009102010734A9F0A3
:100110000AE40093000108E40093010107E400935E
:10012000020103E011E0DBD003C00C9102600C93EC
:1001300003E011E081D00130C1F30C910170E4E0E3
:100140000C941C020E941302D80109019D012B5F2F
:100150003F4F0D5F1F4F1D01E9E02E0EE0E03E1EF8
:10016000FB01808180FD02C000E038C0FD01618399
:100170007283E02DE12931F1E42FE52B19F1FB0128
:1001800083819481840F951F0A9641805280841543
:100190009505C0F4F10140835183F9010082118279
:1001A000FB0123813481F80120833183465F5F4F57
:1001B000FB0103811481040F151F038314830C9129
:1001C00001600C938D0165DF1C911D7F202F20FBAA
:1001D00000E001F9102B1C930C910170E6E00C94E7
:1001E0001A020E9413022197D801FD018581968190
:1001F000442455240C9101FF1BC09E0103811481EE
:10020000040D151D41815281FA0147815085FA0183
:1002100009950881FC01E40DF51D008301E0400E05
:1002200000E0501EFD01018512854016510628F39D
:100230002196E6E00C941A020E9415022197D8013B
:10024000CD01079600E008830C910670063009F096
:1002500041C09E01FD0103811481FC014081518157
:10026000040F151FFD0141815281FA01478150851C
:10027000FA010995FD0105811681FC01208131817A
:10028000020F131FF80120810881021789F0FD0178
:1002900003811481FC0140815181040F151FFD0170
:1002A000A181B2811596ED91FC91099501E013C0F1
:1002B000FC01008111810F5F1F4F008311830081BA
:1002C0001181FD01218532850217130710F20C916F
:1002D0000B7F0C9300E02196E4E00C941C02F801E3
:1002E000208121FF06C020812460208320E0278315
:1002F00020870895A89501C00000E199FDCF1FBB9C
:100300000EBB2DBB0FB7F894E29AE19A0FBF01E044
:100310000895A89501C00000E199FDCF1FBB0EBB59
:10032000E09A0DB3F901008301E00895BA93AA930E
:10033000AEE0B1E069E871E04AE751E020E038E082
:100340000FE111E00E944D006FE171E047E050E0E5
:100350009D0109E211E00E94A2006FE171E04AE014
:1003600050E025E131E004E311E00E94A200FD012C
:10037000018901FF23C00AE000930E0108EE13E09B
:100380000183128303EC15EF28E430E40383148324
:100390002583368309E211E00E946F0100E007C067
:1003A00010E0EEE0F1E0E00FF11F078303950A3063
:1003B000B8F304E311E00E946F0108C009E211E004
:1003C0000E94F10004E311E00E94F1000091280175
:1003D000002359F000E00093280109E211E00E9497
:1003E0006F0104E311E00E946F0109E211E00E9435
:1003F0001C0104E311E00E941C01E8CF0000889575
:10040000FECF0EE70DBF01E00EBFCFE7D3E00E94A5
:100410002502002311F00E943E020E9496010E94D4
:10042000FE010C94FE015A924A92BA93AA939A93AF
:100430008A9308955D804C80BB81AA8199818881CF
:10044000F0E0EC0FFD1FEF01089501E00895F801C1
:1004500001C02193BA0141505040672BD1F7089554
:1004600020E006D0E9F70895259102D0E9F7089534
:100470002D9301501040202F212B08958CE890E0FF
:10048000FC0105911491FC013296A591B491FC01F7
:10049000349625913491422F432B19F0F901E4DF72
:1004A00001C0DEDF069610E08239910748F3089517
:0400000300000000F9
:00000001FF
